:100000000C942A000C943C000C943C000C943C0092
:100010000C943C000C943C000C943C000C943C0070
:100020000C943C000C943C000C943C000C943C0060
:100030000C943C000C943C000C943C000C943C0050
:100040000C943C000C943C000C943C000C943C0040
:100050000C943C0011241FBECFE5D4E0DEBFCDBF21
:1000600020E0A0E6B0E001C01D92AA36B207E1F799
:100070000E943E000C94BC000C94000080E281BB06
:1000800088E182BB81E88FBD83E08EBD1DBC1CBCB6
:1000900017BC16BC1BBC1ABC19BC18BC19BE2FEF70
:1000A0003FEF41E050E083992EC080916000909135
:1000B0006100892B09F05EC08AB59BB58F3F910521
:1000C00009F455C088E893E10197F0F73093650093
:1000D0002093640083994BC08AB59BB501969BBD64
:1000E0008ABD88E893E10197F0F73093650020938B
:1000F00064008AB59BB58F3F910529F45093610048
:100100004093600037C0849929C08091600090912D
:100110006100892B19F58AB59BB5892BF9F088E820
:1001200093E10197F0F73093650020936400849980
:1001300015C08AB59BB501979BBD8ABD88E893E140
:100140000197F0F730936500209364008AB59BB562
:10015000892B21F45093610040936000839BA3CFCF
:10016000849BA1CF10926100109260009CCF849B71
:0C017000D2CFF4CF80B3F2CFF894FFCFD1
:00000001FF
